{
  "contractName": "ItemManager",
  "abi": [
    {
      "anonymous": false,
      "inputs": [
        {
          "indexed": false,
          "internalType": "string",
          "name": "_identifier",
          "type": "string"
        },
        {
          "indexed": false,
          "internalType": "address",
          "name": "_buyerAddress",
          "type": "address"
        },
        {
          "indexed": false,
          "internalType": "address",
          "name": "_itemAddress",
          "type": "address"
        }
      ],
      "name": "InfoBuyItem",
      "type": "event"
    },
    {
      "anonymous": false,
      "inputs": [
        {
          "indexed": false,
          "internalType": "uint256",
          "name": "_itemIndex",
          "type": "uint256"
        },
        {
          "indexed": false,
          "internalType": "uint256",
          "name": "_step",
          "type": "uint256"
        },
        {
          "indexed": false,
          "internalType": "address",
          "name": "_itemAddress",
          "type": "address"
        }
      ],
      "name": "SupplyChainStep",
      "type": "event"
    },
    {
      "inputs": [],
      "name": "getOwner",
      "outputs": [
        {
          "internalType": "address",
          "name": "",
          "type": "address"
        }
      ],
      "stateMutability": "view",
      "type": "function",
      "constant": true
    },
    {
      "inputs": [],
      "name": "isOwner",
      "outputs": [
        {
          "internalType": "bool",
          "name": "",
          "type": "bool"
        }
      ],
      "stateMutability": "view",
      "type": "function",
      "constant": true
    },
    {
      "inputs": [],
      "name": "itemIndex",
      "outputs": [
        {
          "internalType": "uint256",
          "name": "",
          "type": "uint256"
        }
      ],
      "stateMutability": "view",
      "type": "function",
      "constant": true
    },
    {
      "inputs": [
        {
          "internalType": "uint256",
          "name": "",
          "type": "uint256"
        }
      ],
      "name": "items",
      "outputs": [
        {
          "internalType": "contract Item",
          "name": "_item",
          "type": "address"
        },
        {
          "internalType": "string",
          "name": "_identifier",
          "type": "string"
        },
        {
          "internalType": "uint256",
          "name": "_itemPrice",
          "type": "uint256"
        },
        {
          "internalType": "address",
          "name": "_itemAddress",
          "type": "address"
        },
        {
          "internalType": "bool",
          "name": "_active",
          "type": "bool"
        },
        {
          "internalType": "address",
          "name": "_ownerCreate",
          "type": "address"
        },
        {
          "internalType": "enum ItemManager.SupplyChainState",
          "name": "_state",
          "type": "uint8"
        }
      ],
      "stateMutability": "view",
      "type": "function",
      "constant": true
    },
    {
      "inputs": [
        {
          "internalType": "address payable",
          "name": "newOwner",
          "type": "address"
        }
      ],
      "name": "setOwner",
      "outputs": [],
      "stateMutability": "nonpayable",
      "type": "function"
    },
    {
      "inputs": [],
      "name": "getItemIndex",
      "outputs": [
        {
          "internalType": "uint256",
          "name": "",
          "type": "uint256"
        }
      ],
      "stateMutability": "view",
      "type": "function",
      "constant": true
    },
    {
      "inputs": [
        {
          "internalType": "string",
          "name": "_identifier",
          "type": "string"
        },
        {
          "internalType": "uint256",
          "name": "_itemPrice",
          "type": "uint256"
        },
        {
          "internalType": "address",
          "name": "_ownerCreate",
          "type": "address"
        }
      ],
      "name": "createItem",
      "outputs": [],
      "stateMutability": "nonpayable",
      "type": "function"
    },
    {
      "inputs": [
        {
          "internalType": "uint256",
          "name": "_itemIndex",
          "type": "uint256"
        }
      ],
      "name": "triggerPayment",
      "outputs": [],
      "stateMutability": "payable",
      "type": "function",
      "payable": true
    },
    {
      "inputs": [
        {
          "internalType": "uint256",
          "name": "_itemIndex",
          "type": "uint256"
        }
      ],
      "name": "triggerDelivery",
      "outputs": [],
      "stateMutability": "nonpayable",
      "type": "function"
    }
  ],
  "bytecode": "0x60806040526000600255336000806101000a81548173ffffffffffffffffffffffffffffffffffffffff021916908373ffffffffffffffffffffffffffffffffffffffff16021790555061144a806100586000396000f3fe6080604052600436106100865760003560e01c8063b4e6fabd11610059578063b4e6fabd14610190578063b562d2c0146101bb578063bfb231d2146102ad578063cd31831e14610421578063e07bb1a71461045c57610086565b806313af40351461008b578063800fb83f146100dc578063893d20e81461010a5780638f32d59b14610161575b600080fd5b34801561009757600080fd5b506100da600480360360208110156100ae57600080fd5b81019080803573ffffffffffffffffffffffffffffffffffffffff169060200190929190505050610487565b005b610108600480360360208110156100f257600080fd5b81019080803590602001909291905050506104ca565b005b34801561011657600080fd5b5061011f610715565b604051808273ffffffffffffffffffffffffffffffffffffffff1673ffffffffffffffffffffffffffffffffffffffff16815260200191505060405180910390f35b34801561016d57600080fd5b5061017661073e565b604051808215151515815260200191505060405180910390f35b34801561019c57600080fd5b506101a5610795565b6040518082815260200191505060405180910390f35b3480156101c757600080fd5b506102ab600480360360608110156101de57600080fd5b81019080803590602001906401000000008111156101fb57600080fd5b82018360208201111561020d57600080fd5b8035906020019184600183028401116401000000008311171561022f57600080fd5b91908080601f016020809104026020016040519081016040528093929190818152602001838380828437600081840152601f19601f82011690508083019250505050505050919291929080359060200190929190803573ffffffffffffffffffffffffffffffffffffffff16906020019092919050505061079f565b005b3480156102b957600080fd5b506102e6600480360360208110156102d057600080fd5b8101908080359060200190929190505050610abf565b604051808873ffffffffffffffffffffffffffffffffffffffff1673ffffffffffffffffffffffffffffffffffffffff168152602001806020018781526020018673ffffffffffffffffffffffffffffffffffffffff1673ffffffffffffffffffffffffffffffffffffffff168152602001851515151581526020018473ffffffffffffffffffffffffffffffffffffffff1673ffffffffffffffffffffffffffffffffffffffff1681526020018360028111156103a057fe5b60ff168152602001828103825288818151815260200191508051906020019080838360005b838110156103e05780820151818401526020810190506103c5565b50505050905090810190601f16801561040d5780820380516001836020036101000a031916815260200191505b509850505050505050505060405180910390f35b34801561042d57600080fd5b5061045a6004803603602081101561044457600080fd5b8101908080359060200190929190505050610c13565b005b34801561046857600080fd5b50610471610dd4565b6040518082815260200191505060405180910390f35b806000806101000a81548173ffffffffffffffffffffffffffffffffffffffff021916908373ffffffffffffffffffffffffffffffffffffffff16021790555050565b34600160008381526020019081526020016000206002015414610555576040517f08c379a000000000000000000000000000000000000000000000000000000000815260040180806020018281038252601c8152602001807f4f6e6c792066756c6c207061796d656e7473206163636570746564210000000081525060200191505060405180910390fd5b6000600281111561056257fe5b6001600083815260200190815260200160002060040160149054906101000a900460ff16600281111561059157fe5b14610604576040517f08c379a000000000000000000000000000000000000000000000000000000000815260040180806020018281038252601d8152602001807f4974656d206973206675727468657220696e2074686520636861696e2100000081525060200191505060405180910390fd5b600180600083815260200190815260200160002060040160146101000a81548160ff0219169083600281111561063657fe5b02179055507fa4035636e99f06b7651a604c1019fa4e8779fe68ef27eeb74dff2de348f6199b816001600084815260200190815260200160002060040160149054906101000a900460ff16600281111561068c57fe5b6001600085815260200190815260200160002060000160009054906101000a900473ffffffffffffffffffffffffffffffffffffffff16604051808481526020018381526020018273ffffffffffffffffffffffffffffffffffffffff1673ffffffffffffffffffffffffffffffffffffffff168152602001935050505060405180910390a150565b60008060009054906101000a900473ffffffffffffffffffffffffffffffffffffffff16905090565b60008060009054906101000a900473ffffffffffffffffffffffffffffffffffffffff1673ffffffffffffffffffffffffffffffffffffffff163373ffffffffffffffffffffffffffffffffffffffff1614905090565b6000600254905090565b60003083600254846040516107b390610dda565b808573ffffffffffffffffffffffffffffffffffffffff1673ffffffffffffffffffffffffffffffffffffffff1681526020018481526020018381526020018273ffffffffffffffffffffffffffffffffffffffff1673ffffffffffffffffffffffffffffffffffffffff168152602001945050505050604051809103906000f080158015610846573d6000803e3d6000fd5b5090508060016000600254815260200190815260200160002060000160006101000a81548173ffffffffffffffffffffffffffffffffffffffff021916908373ffffffffffffffffffffffffffffffffffffffff1602179055508360016000600254815260200190815260200160002060010190805190602001906108cc929190610de7565b5082600160006002548152602001908152602001600020600201819055508060016000600254815260200190815260200160002060030160006101000a81548173ffffffffffffffffffffffffffffffffffffffff021916908373ffffffffffffffffffffffffffffffffffffffff1602179055506001806000600254815260200190815260200160002060030160146101000a81548160ff0219169083151502179055508160016000600254815260200190815260200160002060040160006101000a81548173ffffffffffffffffffffffffffffffffffffffff021916908373ffffffffffffffffffffffffffffffffffffffff160217905550600060016000600254815260200190815260200160002060040160146101000a81548160ff021916908360028111156109fd57fe5b02179055507fa4035636e99f06b7651a604c1019fa4e8779fe68ef27eeb74dff2de348f6199b60025460016000600254815260200190815260200160002060040160149054906101000a900460ff166002811115610a5757fe5b83604051808481526020018381526020018273ffffffffffffffffffffffffffffffffffffffff1673ffffffffffffffffffffffffffffffffffffffff168152602001935050505060405180910390a160026000815480929190600101919050555050505050565b60016020528060005260406000206000915090508060000160009054906101000a900473ffffffffffffffffffffffffffffffffffffffff1690806001018054600181600116156101000203166002900480601f016020809104026020016040519081016040528092919081815260200182805460018160011615610100020316600290048015610b915780601f10610b6657610100808354040283529160200191610b91565b820191906000526020600020905b815481529060010190602001808311610b7457829003601f168201915b5050505050908060020154908060030160009054906101000a900473ffffffffffffffffffffffffffffffffffffffff16908060030160149054906101000a900460ff16908060040160009054906101000a900473ffffffffffffffffffffffffffffffffffffffff16908060040160149054906101000a900460ff16905087565b60016002811115610c2057fe5b6001600083815260200190815260200160002060040160149054906101000a900460ff166002811115610c4f57fe5b14610cc2576040517f08c379a000000000000000000000000000000000000000000000000000000000815260040180806020018281038252601d8152602001807f4974656d206973206675727468657220696e2074686520636861696e2100000081525060200191505060405180910390fd5b60026001600083815260200190815260200160002060040160146101000a81548160ff02191690836002811115610cf557fe5b02179055507fa4035636e99f06b7651a604c1019fa4e8779fe68ef27eeb74dff2de348f6199b816001600084815260200190815260200160002060040160149054906101000a900460ff166002811115610d4b57fe5b6001600085815260200190815260200160002060000160009054906101000a900473ffffffffffffffffffffffffffffffffffffffff16604051808481526020018381526020018273ffffffffffffffffffffffffffffffffffffffff1673ffffffffffffffffffffffffffffffffffffffff168152602001935050505060405180910390a150565b60025481565b61058880610e8d83390190565b828054600181600116156101000203166002900490600052602060002090601f016020900481019282601f10610e2857805160ff1916838001178555610e56565b82800160010185558215610e56579182015b82811115610e55578251825591602001919060010190610e3a565b5b509050610e639190610e67565b5090565b610e8991905b80821115610e85576000816000905550600101610e6d565b5090565b9056fe608060405234801561001057600080fd5b506040516105883803806105888339818101604052608081101561003357600080fd5b8101908080519060200190929190805190602001909291908051906020019092919080519060200190929190505050826000819055508160028190555083600460006101000a81548173ffffffffffffffffffffffffffffffffffffffff021916908373ffffffffffffffffffffffffffffffffffffffff16021790555080600360006101000a81548173ffffffffffffffffffffffffffffffffffffffff021916908373ffffffffffffffffffffffffffffffffffffffff16021790555050505050610483806101056000396000f3fe6080604052600436106100435760003560e01c80632986c0e5146103105780633c8da5881461033b5780633de42e0e1461036657806389794d00146103bd57610301565b36610301576000600154146100c0576040517f08c379a00000000000000000000000000000000000000000000000000000000081526004018080602001828103825260168152602001807f4974656d2069732070616964206120616c72656164790000000000000000000081525060200191505060405180910390fd5b3460005414610137576040517f08c379a000000000000000000000000000000000000000000000000000000000815260040180806020018281038252601a8152602001807f4f6e6c792066756c6c207061796d656e747320616c6c6f77656400000000000081525060200191505060405180910390fd5b346001819055506000600460009054906101000a900473ffffffffffffffffffffffffffffffffffffffff1673ffffffffffffffffffffffffffffffffffffffff1634600254604051602401808281526020019150506040516020818303038152906040527f800fb83f000000000000000000000000000000000000000000000000000000007bffffffffffffffffffffffffffffffffffffffffffffffffffffffff19166020820180517bffffffffffffffffffffffffffffffffffffffffffffffffffffffff83818316178352505050506040518082805190602001908083835b6020831061023d578051825260208201915060208101905060208303925061021a565b6001836020036101000a03801982511681845116808217855250505050505090500191505060006040518083038185875af1925050503d806000811461029f576040519150601f19603f3d011682016040523d82523d6000602084013e6102a4565b606091505b50509050806102fe576040517f08c379a000000000000000000000000000000000000000000000000000000000815260040180806020018281038252602d815260200180610421602d913960400191505060405180910390fd5b50005b34801561030d57600080fd5b50005b34801561031c57600080fd5b506103256103e8565b6040518082815260200191505060405180910390f35b34801561034757600080fd5b506103506103ee565b6040518082815260200191505060405180910390f35b34801561037257600080fd5b5061037b6103f4565b604051808273ffffffffffffffffffffffffffffffffffffffff1673ffffffffffffffffffffffffffffffffffffffff16815260200191505060405180910390f35b3480156103c957600080fd5b506103d261041a565b6040518082815260200191505060405180910390f35b60025481565b60005481565b600360009054906101000a900473ffffffffffffffffffffffffffffffffffffffff1681565b6001548156fe546865207472616e73616374696f6e207761736e2774207375636365737366756c2c2063616e63656c6c696e67a2646970667358221220e2138bf98284ec23f65acde9f12484b4d4de6bda32eb9109dc656619fc55f4c864736f6c63430006010033a2646970667358221220eb8c95aca76c32dfb8a53e25f5c6770ec0066c02ce177a95e454935a9d69ed3164736f6c63430006010033",
  "source": "pragma solidity ^0.6.0;\n\nimport \"./Ownable.sol\";\nimport \"./Item.sol\";\n\n\ncontract ItemManager is Ownable{\n    enum SupplyChainState{Created, Paided, Delivered}\n\n    struct S_Item {\n        Item _item;\n        string _identifier;\n        uint _itemPrice;\n        address _itemAddress;\n        bool _active;\n        address _ownerCreate;\n        ItemManager.SupplyChainState _state;\n    }\n\n    mapping (uint => S_Item ) public items;\n\n    uint public itemIndex = 0;\n\n    function getItemIndex() public view returns(uint){\n        return itemIndex;\n    }\n    event SupplyChainStep(uint _itemIndex, uint _step, address _itemAddress);\n    event InfoBuyItem(string _identifier, address _buyerAddress, address _itemAddress);\n\n    function createItem(string memory _identifier, uint _itemPrice, address _ownerCreate)public {\n        Item item = new Item(this, _itemPrice, itemIndex, _ownerCreate);\n\n        items[itemIndex]._item = item;\n        items[itemIndex]._identifier = _identifier;\n        items[itemIndex]._itemPrice = _itemPrice;\n        items[itemIndex]._itemAddress = address(item);\n        items[itemIndex]._active = true;\n        items[itemIndex]._ownerCreate = _ownerCreate;\n        items[itemIndex]._state = SupplyChainState.Created;\n\n        emit SupplyChainStep(itemIndex, uint(items[itemIndex]._state), address(item));\n        itemIndex++;\n\n    }\n\n    function triggerPayment(uint _itemIndex) public payable{\n        require(items[_itemIndex]._itemPrice == msg.value, \"Only full payments accepted!\");\n        require(items[_itemIndex]._state == SupplyChainState.Created, \"Item is further in the chain!\");\n        items[_itemIndex]._state = SupplyChainState.Paided;\n\n        emit SupplyChainStep(_itemIndex, uint(items[_itemIndex]._state), address(items[_itemIndex]._item));\n    \n    }\n\n    function triggerDelivery(uint _itemIndex)public {        \n        require(items[_itemIndex]._state == SupplyChainState.Paided, \"Item is further in the chain!\");\n        items[_itemIndex]._state = SupplyChainState.Delivered;\n        emit SupplyChainStep(_itemIndex, uint(items[_itemIndex]._state), address(items[_itemIndex]._item));\n    }\n}",
  "sourcePath": "E:\\marketplace_blockchain-main\\project\\contracts\\ItemManager.sol",
  "compiler": {
    "name": "solc",
    "version": "0.6.1+commit.e6f7d5a4.Emscripten.clang"
  },
  "schemaVersion": "3.4.3",
  "updatedAt": "2022-04-24T12:37:00.344Z",
  "networkType": "ethereum",
  "devdoc": {
    "methods": {}
  },
  "userdoc": {
    "methods": {}
  }
}