{
  "contractName": "Ownable",
  "abi": [
    {
      "inputs": [],
      "stateMutability": "nonpayable",
      "type": "constructor"
    },
    {
      "inputs": [
        {
          "internalType": "address payable",
          "name": "newOwner",
          "type": "address"
        }
      ],
      "name": "setOwner",
      "outputs": [],
      "stateMutability": "nonpayable",
      "type": "function"
    },
    {
      "inputs": [],
      "name": "getOwner",
      "outputs": [
        {
          "internalType": "address",
          "name": "",
          "type": "address"
        }
      ],
      "stateMutability": "view",
      "type": "function"
    },
    {
      "inputs": [],
      "name": "isOwner",
      "outputs": [
        {
          "internalType": "bool",
          "name": "",
          "type": "bool"
        }
      ],
      "stateMutability": "view",
      "type": "function"
    }
  ],
  "bytecode": "0x608060405234801561001057600080fd5b50336000806101000a81548173ffffffffffffffffffffffffffffffffffffffff021916908373ffffffffffffffffffffffffffffffffffffffff1602179055506101ef806100606000396000f3fe608060405234801561001057600080fd5b50600436106100415760003560e01c806313af403514610046578063893d20e81461008a5780638f32d59b146100d4575b600080fd5b6100886004803603602081101561005c57600080fd5b81019080803573ffffffffffffffffffffffffffffffffffffffff1690602001909291905050506100f6565b005b610092610139565b604051808273ffffffffffffffffffffffffffffffffffffffff1673ffffffffffffffffffffffffffffffffffffffff16815260200191505060405180910390f35b6100dc610162565b604051808215151515815260200191505060405180910390f35b806000806101000a81548173ffffffffffffffffffffffffffffffffffffffff021916908373ffffffffffffffffffffffffffffffffffffffff16021790555050565b60008060009054906101000a900473ffffffffffffffffffffffffffffffffffffffff16905090565b60008060009054906101000a900473ffffffffffffffffffffffffffffffffffffffff1673ffffffffffffffffffffffffffffffffffffffff163373ffffffffffffffffffffffffffffffffffffffff161490509056fea264697066735822122023fbf5458ad62ccffdd63714081e4c42da9ef75bb74738a13552d26463bcfa1464736f6c63430006010033",
  "source": "pragma solidity ^0.6.0;\n\ncontract Ownable{\n    address payable _owner;\n    constructor() public{\n        _owner = msg.sender;\n    }\n\n    modifier onlyOwner(){\n        require(isOwner() , \"You are not owner\");\n        _;\n    }\n    \n    function setOwner(address payable newOwner) public {\n         _owner = newOwner;\n    }\n    function getOwner() public view returns(address){\n        return _owner;\n    }\n    \n    function isOwner() public view returns(bool){\n        return msg.sender == _owner;\n    }\n}",
  "sourcePath": "E:\\marketplace_blockchain-main\\project\\contracts\\Ownable.sol",
  "compiler": {
    "name": "solc",
    "version": "0.6.1+commit.e6f7d5a4.Emscripten.clang"
  },
  "schemaVersion": "3.4.3",
  "updatedAt": "2022-04-24T12:36:54.654Z",
  "devdoc": {
    "methods": {}
  },
  "userdoc": {
    "methods": {}
  }
}